:100000000C9434000C9451000C9451000C94510049
:100010000C9451000C9451000C9451000C9451001C
:100020000C9451000C9451000C9451000C9451000C
:100030000C9451000C9424010C9451000C94510028
:100040000C9451000C9451000C9451000C945100EC
:100050000C9451000C9451000C9451000C945100DC
:100060000C9451000C94510011241FBECFEFD8E026
:10007000DEBFCDBF11E0A0E0B1E0E8EAF2E002C0EF
:1000800005900D92A430B107D9F721E0A4E0B1E0CA
:1000900001C01D92AC32B207E1F70E9402010C943C
:1000A00052010C94000080910301813011F45A9A9E
:1000B00001C05A9881E090910301911180E08093F2
:1000C0000301089580910201813011F45B9A01C00F
:1000D0005B9881E090910201911180E08093020190
:1000E000089580910101813011F45C9A01C05C98FF
:1000F00081E090910101911180E0809301010895C8
:1001000080910001813011F45D9A01C05D9881E019
:1001100090910001911180E080930001089587EF94
:1001200092EC909385008093840010928000E1E827
:10013000F0E080818560808381E080936F008FEFA5
:100140008AB9E4E0F1E02CE231E082E01082128230
:100150001182148213821682158287833896E217E1
:10016000F307A1F70895A4E0B1E020E030E0F90141
:1001700017969C911797923089F4EE0FFF1FEE0FA0
:10018000FF1FEE0FFF1FEC5FFE4F808372836183C2
:100190005483438356834583178208952F5F3F4FCF
:1001A00018962530310519F70895DF92EF92FF92E6
:1001B0000F931F93CF93DF93C4E0D1E00F2EFCE2A7
:1001C000EF2EF1E0FF2EF02DDD24D3948B819C8166
:1001D000892B61F48F81811109C0DF82E981FA8165
:1001E00009958D819E819C838B831F822896CE15D5
:1001F000DF0561F7DF91CF911F910F91FF90EF9095
:10020000DF9008950E948F0041E050E063E570E0C8
:1002100081E00E94B30042E050E062E670E082E0DC
:100220000E94B30043E050E061E770E083E00E9489
:10023000B30046E050E060E870E084E00E94B30064
:1002400078940E94D500FDCF1F920F920FB60F92A7
:1002500011242F933F938F939F93EF93FF9387EFF7
:1002600092EC909385008093840081E086BBE4E06B
:10027000F1E02CE231E08781811105C08381948116
:100280000197948383833896E217F307A1F7FF91D0
:10029000EF919F918F913F912F910F900FBE0F90F3
:0802A0001F901895F894FFCFA0
:0402A800010101014E
:00000001FF
